{
  "_format": "hh-sol-artifact-1",
  "contractName": "MyNFT",
  "sourceName": "contracts/MyNft.sol",
  "abi": [
    {
      "inputs": [],
      "stateMutability": "nonpayable",
      "type": "constructor"
    },
    {
      "anonymous": false,
      "inputs": [
        {
          "indexed": true,
          "internalType": "address",
          "name": "owner",
          "type": "address"
        },
        {
          "indexed": true,
          "internalType": "address",
          "name": "approved",
          "type": "address"
        },
        {
          "indexed": true,
          "internalType": "uint256",
          "name": "tokenId",
          "type": "uint256"
        }
      ],
      "name": "Approval",
      "type": "event"
    },
    {
      "anonymous": false,
      "inputs": [
        {
          "indexed": true,
          "internalType": "address",
          "name": "owner",
          "type": "address"
        },
        {
          "indexed": true,
          "internalType": "address",
          "name": "operator",
          "type": "address"
        },
        {
          "indexed": false,
          "internalType": "bool",
          "name": "approved",
          "type": "bool"
        }
      ],
      "name": "ApprovalForAll",
      "type": "event"
    },
    {
      "anonymous": false,
      "inputs": [
        {
          "indexed": true,
          "internalType": "address",
          "name": "from",
          "type": "address"
        },
        {
          "indexed": true,
          "internalType": "address",
          "name": "to",
          "type": "address"
        },
        {
          "indexed": true,
          "internalType": "uint256",
          "name": "tokenId",
          "type": "uint256"
        }
      ],
      "name": "Transfer",
      "type": "event"
    },
    {
      "inputs": [
        {
          "internalType": "uint256",
          "name": "",
          "type": "uint256"
        }
      ],
      "name": "Imagelist",
      "outputs": [
        {
          "internalType": "string",
          "name": "name",
          "type": "string"
        },
        {
          "internalType": "string",
          "name": "color",
          "type": "string"
        },
        {
          "internalType": "string",
          "name": "description",
          "type": "string"
        },
        {
          "internalType": "string",
          "name": "tokenURI",
          "type": "string"
        },
        {
          "internalType": "string",
          "name": "price",
          "type": "string"
        },
        {
          "internalType": "string",
          "name": "dateTime",
          "type": "string"
        },
        {
          "internalType": "address",
          "name": "to",
          "type": "address"
        }
      ],
      "stateMutability": "view",
      "type": "function"
    },
    {
      "inputs": [
        {
          "internalType": "address",
          "name": "to",
          "type": "address"
        },
        {
          "internalType": "uint256",
          "name": "tokenId",
          "type": "uint256"
        }
      ],
      "name": "approve",
      "outputs": [],
      "stateMutability": "nonpayable",
      "type": "function"
    },
    {
      "inputs": [
        {
          "internalType": "address",
          "name": "owner",
          "type": "address"
        }
      ],
      "name": "balanceOf",
      "outputs": [
        {
          "internalType": "uint256",
          "name": "",
          "type": "uint256"
        }
      ],
      "stateMutability": "view",
      "type": "function"
    },
    {
      "inputs": [
        {
          "internalType": "uint256",
          "name": "tokenId",
          "type": "uint256"
        }
      ],
      "name": "getApproved",
      "outputs": [
        {
          "internalType": "address",
          "name": "",
          "type": "address"
        }
      ],
      "stateMutability": "view",
      "type": "function"
    },
    {
      "inputs": [
        {
          "internalType": "address",
          "name": "",
          "type": "address"
        },
        {
          "internalType": "string",
          "name": "",
          "type": "string"
        }
      ],
      "name": "invetments",
      "outputs": [
        {
          "internalType": "uint256",
          "name": "",
          "type": "uint256"
        }
      ],
      "stateMutability": "view",
      "type": "function"
    },
    {
      "inputs": [
        {
          "internalType": "address",
          "name": "owner",
          "type": "address"
        },
        {
          "internalType": "address",
          "name": "operator",
          "type": "address"
        }
      ],
      "name": "isApprovedForAll",
      "outputs": [
        {
          "internalType": "bool",
          "name": "",
          "type": "bool"
        }
      ],
      "stateMutability": "view",
      "type": "function"
    },
    {
      "inputs": [
        {
          "internalType": "string",
          "name": "name",
          "type": "string"
        },
        {
          "internalType": "string",
          "name": "color",
          "type": "string"
        },
        {
          "internalType": "string",
          "name": "description",
          "type": "string"
        },
        {
          "internalType": "string",
          "name": "price",
          "type": "string"
        },
        {
          "internalType": "string",
          "name": "dateTime",
          "type": "string"
        },
        {
          "internalType": "address",
          "name": "to",
          "type": "address"
        },
        {
          "internalType": "address",
          "name": "recipient",
          "type": "address"
        },
        {
          "internalType": "string",
          "name": "tokenURI",
          "type": "string"
        }
      ],
      "name": "mintNFT",
      "outputs": [
        {
          "internalType": "uint256",
          "name": "",
          "type": "uint256"
        }
      ],
      "stateMutability": "nonpayable",
      "type": "function"
    },
    {
      "inputs": [],
      "name": "name",
      "outputs": [
        {
          "internalType": "string",
          "name": "",
          "type": "string"
        }
      ],
      "stateMutability": "view",
      "type": "function"
    },
    {
      "inputs": [
        {
          "internalType": "uint256",
          "name": "tokenId",
          "type": "uint256"
        }
      ],
      "name": "ownerOf",
      "outputs": [
        {
          "internalType": "address",
          "name": "",
          "type": "address"
        }
      ],
      "stateMutability": "view",
      "type": "function"
    },
    {
      "inputs": [
        {
          "internalType": "address",
          "name": "from",
          "type": "address"
        },
        {
          "internalType": "address",
          "name": "to",
          "type": "address"
        },
        {
          "internalType": "uint256",
          "name": "tokenId",
          "type": "uint256"
        }
      ],
      "name": "safeTransferFrom",
      "outputs": [],
      "stateMutability": "nonpayable",
      "type": "function"
    },
    {
      "inputs": [
        {
          "internalType": "address",
          "name": "from",
          "type": "address"
        },
        {
          "internalType": "address",
          "name": "to",
          "type": "address"
        },
        {
          "internalType": "uint256",
          "name": "tokenId",
          "type": "uint256"
        },
        {
          "internalType": "bytes",
          "name": "_data",
          "type": "bytes"
        }
      ],
      "name": "safeTransferFrom",
      "outputs": [],
      "stateMutability": "nonpayable",
      "type": "function"
    },
    {
      "inputs": [
        {
          "internalType": "address",
          "name": "operator",
          "type": "address"
        },
        {
          "internalType": "bool",
          "name": "approved",
          "type": "bool"
        }
      ],
      "name": "setApprovalForAll",
      "outputs": [],
      "stateMutability": "nonpayable",
      "type": "function"
    },
    {
      "inputs": [
        {
          "internalType": "bytes4",
          "name": "interfaceId",
          "type": "bytes4"
        }
      ],
      "name": "supportsInterface",
      "outputs": [
        {
          "internalType": "bool",
          "name": "",
          "type": "bool"
        }
      ],
      "stateMutability": "view",
      "type": "function"
    },
    {
      "inputs": [],
      "name": "symbol",
      "outputs": [
        {
          "internalType": "string",
          "name": "",
          "type": "string"
        }
      ],
      "stateMutability": "view",
      "type": "function"
    },
    {
      "inputs": [
        {
          "internalType": "uint256",
          "name": "tokenId",
          "type": "uint256"
        }
      ],
      "name": "tokenURI",
      "outputs": [
        {
          "internalType": "string",
          "name": "",
          "type": "string"
        }
      ],
      "stateMutability": "view",
      "type": "function"
    },
    {
      "inputs": [
        {
          "internalType": "address",
          "name": "from",
          "type": "address"
        },
        {
          "internalType": "address",
          "name": "to",
          "type": "address"
        },
        {
          "internalType": "uint256",
          "name": "tokenId",
          "type": "uint256"
        }
      ],
      "name": "transferFrom",
      "outputs": [],
      "stateMutability": "nonpayable",
      "type": "function"
    }
  ],
  "bytecode": "0x60806040523480156200001157600080fd5b506040518060400160405280600781526020017f736e6170706572000000000000000000000000000000000000000000000000008152506040518060400160405280600481526020017f736e617000000000000000000000000000000000000000000000000000000000815250816000908051906020019062000096929190620000b8565b508060019080519060200190620000af929190620000b8565b505050620001cd565b828054620000c69062000168565b90600052602060002090601f016020900481019282620000ea576000855562000136565b82601f106200010557805160ff191683800117855562000136565b8280016001018555821562000136579182015b828111156200013557825182559160200191906001019062000118565b5b50905062000145919062000149565b5090565b5b80821115620001645760008160009055506001016200014a565b5090565b600060028204905060018216806200018157607f821691505b602082108114156200019857620001976200019e565b5b50919050565b7f4e487b7100000000000000000000000000000000000000000000000000000000600052602260045260246000fd5b61339280620001dd6000396000f3fe608060405234801561001057600080fd5b50600436106101005760003560e01c806370a0823111610097578063c87b56dd11610066578063c87b56dd146102c3578063ce67bb4c146102f3578063d2e51cfc14610323578063e985e9c51461035357610100565b806370a082311461023d57806395d89b411461026d578063a22cb4651461028b578063b88d4fde146102a757610100565b806323b872dd116100d357806323b872dd1461019f57806342842e0e146101bb5780636352211e146101d757806367e2ddb81461020757610100565b806301ffc9a71461010557806306fdde0314610135578063081812fc14610153578063095ea7b314610183575b600080fd5b61011f600480360381019061011a91906121f9565b610383565b60405161012c9190612769565b60405180910390f35b61013d610465565b60405161014a9190612784565b60405180910390f35b61016d600480360381019061016891906123b1565b6104f7565b60405161017a9190612702565b60405180910390f35b61019d600480360381019061019891906121b9565b61057c565b005b6101b960048036038101906101b49190612047565b610694565b005b6101d560048036038101906101d09190612047565b6106f4565b005b6101f160048036038101906101ec91906123b1565b610714565b6040516101fe9190612702565b60405180910390f35b610221600480360381019061021c91906123b1565b6107c6565b60405161023497969594939291906127a6565b60405180910390f35b61025760048036038101906102529190611fda565b610b68565b6040516102649190612a3f565b60405180910390f35b610275610c20565b6040516102829190612784565b60405180910390f35b6102a560048036038101906102a0919061211d565b610cb2565b005b6102c160048036038101906102bc919061209a565b610cc8565b005b6102dd60048036038101906102d891906123b1565b610d2a565b6040516102ea9190612784565b60405180910390f35b61030d6004803603810190610308919061215d565b610e7c565b60405161031a9190612a3f565b60405180910390f35b61033d60048036038101906103389190612253565b610eb7565b60405161034a9190612a3f565b60405180910390f35b61036d60048036038101906103689190612007565b611060565b60405161037a9190612769565b60405180910390f35b60007f80ac58cd000000000000000000000000000000000000000000000000000000007bffffffffffffffffffffffffffffffffffffffffffffffffffffffff1916827bffffffffffffffffffffffffffffffffffffffffffffffffffffffff1916148061044e57507f5b5e139f000000000000000000000000000000000000000000000000000000007bffffffffffffffffffffffffffffffffffffffffffffffffffffffff1916827bffffffffffffffffffffffffffffffffffffffffffffffffffffffff1916145b8061045e575061045d826110f4565b5b9050919050565b60606000805461047490612c95565b80601f01602080910402602001604051908101604052809291908181526020018280546104a090612c95565b80156104ed5780601f106104c2576101008083540402835291602001916104ed565b820191906000526020600020905b8154815290600101906020018083116104d057829003601f168201915b5050505050905090565b60006105028261115e565b610541576040517f08c379a0000000000000000000000000000000000000000000000000000000008152600401610538906129bf565b60405180910390fd5b6004600083815260200190815260200160002060009054906101000a900473ffffffffffffffffffffffffffffffffffffffff169050919050565b600061058782610714565b90508073ffffffffffffffffffffffffffffffffffffffff168373ffffffffffffffffffffffffffffffffffffffff1614156105f8576040517f08c379a00000000000000000000000000000000000000000000000000000000081526004016105ef906129ff565b60405180910390fd5b8073ffffffffffffffffffffffffffffffffffffffff166106176111ca565b73ffffffffffffffffffffffffffffffffffffffff1614806106465750610645816106406111ca565b611060565b5b610685576040517f08c379a000000000000000000000000000000000000000000000000000000000815260040161067c906128ff565b60405180910390fd5b61068f83836111d2565b505050565b6106a561069f6111ca565b8261128b565b6106e4576040517f08c379a00000000000000000000000000000000000000000000000000000000081526004016106db90612a1f565b60405180910390fd5b6106ef838383611369565b505050565b61070f83838360405180602001604052806000815250610cc8565b505050565b6000806002600084815260200190815260200160002060009054906101000a900473ffffffffffffffffffffffffffffffffffffffff169050600073ffffffffffffffffffffffffffffffffffffffff168173ffffffffffffffffffffffffffffffffffffffff1614156107bd576040517f08c379a00000000000000000000000000000000000000000000000000000000081526004016107b49061293f565b60405180910390fd5b80915050919050565b600881815481106107d657600080fd5b90600052602060002090600702016000915090508060000180546107f990612c95565b80601f016020809104026020016040519081016040528092919081815260200182805461082590612c95565b80156108725780601f1061084757610100808354040283529160200191610872565b820191906000526020600020905b81548152906001019060200180831161085557829003601f168201915b50505050509080600101805461088790612c95565b80601f01602080910402602001604051908101604052809291908181526020018280546108b390612c95565b80156109005780601f106108d557610100808354040283529160200191610900565b820191906000526020600020905b8154815290600101906020018083116108e357829003601f168201915b50505050509080600201805461091590612c95565b80601f016020809104026020016040519081016040528092919081815260200182805461094190612c95565b801561098e5780601f106109635761010080835404028352916020019161098e565b820191906000526020600020905b81548152906001019060200180831161097157829003601f168201915b5050505050908060030180546109a390612c95565b80601f01602080910402602001604051908101604052809291908181526020018280546109cf90612c95565b8015610a1c5780601f106109f157610100808354040283529160200191610a1c565b820191906000526020600020905b8154815290600101906020018083116109ff57829003601f168201915b505050505090806004018054610a3190612c95565b80601f0160208091040260200160405190810160405280929190818152602001828054610a5d90612c95565b8015610aaa5780601f10610a7f57610100808354040283529160200191610aaa565b820191906000526020600020905b815481529060010190602001808311610a8d57829003601f168201915b505050505090806005018054610abf90612c95565b80601f0160208091040260200160405190810160405280929190818152602001828054610aeb90612c95565b8015610b385780601f10610b0d57610100808354040283529160200191610b38565b820191906000526020600020905b815481529060010190602001808311610b1b57829003601f168201915b5050505050908060060160009054906101000a900473ffffffffffffffffffffffffffffffffffffffff16905087565b60008073ffffffffffffffffffffffffffffffffffffffff168273ffffffffffffffffffffffffffffffffffffffff161415610bd9576040517f08c379a0000000000000000000000000000000000000000000000000000000008152600401610bd09061291f565b60405180910390fd5b600360008373ffffffffffffffffffffffffffffffffffffffff1673ffffffffffffffffffffffffffffffffffffffff168152602001908152602001600020549050919050565b606060018054610c2f90612c95565b80601f0160208091040260200160405190810160405280929190818152602001828054610c5b90612c95565b8015610ca85780601f10610c7d57610100808354040283529160200191610ca8565b820191906000526020600020905b815481529060010190602001808311610c8b57829003601f168201915b5050505050905090565b610cc4610cbd6111ca565b83836115d0565b5050565b610cd9610cd36111ca565b8361128b565b610d18576040517f08c379a0000000000000000000000000000000000000000000000000000000008152600401610d0f90612a1f565b60405180910390fd5b610d248484848461173d565b50505050565b6060610d358261115e565b610d74576040517f08c379a0000000000000000000000000000000000000000000000000000000008152600401610d6b9061299f565b60405180910390fd5b6000600660008481526020019081526020016000208054610d9490612c95565b80601f0160208091040260200160405190810160405280929190818152602001828054610dc090612c95565b8015610e0d5780601f10610de257610100808354040283529160200191610e0d565b820191906000526020600020905b815481529060010190602001808311610df057829003601f168201915b505050505090506000610e1e611799565b9050600081511415610e34578192505050610e77565b600082511115610e69578082604051602001610e519291906126de565b60405160208183030381529060405292505050610e77565b610e72846117b0565b925050505b919050565b600960205281600052604060002081805160208101820180518482526020830160208501208183528095505050505050600091509150505481565b6000610ec36007611857565b60086040518060e001604052808b81526020018a81526020018981526020018481526020018881526020018781526020018673ffffffffffffffffffffffffffffffffffffffff1681525090806001815401808255809150506001900390600052602060002090600702016000909190919091506000820151816000019080519060200190610f53929190611dee565b506020820151816001019080519060200190610f70929190611dee565b506040820151816002019080519060200190610f8d929190611dee565b506060820151816003019080519060200190610faa929190611dee565b506080820151816004019080519060200190610fc7929190611dee565b5060a0820151816005019080519060200190610fe4929190611dee565b5060c08201518160060160006101000a81548173ffffffffffffffffffffffffffffffffffffffff021916908373ffffffffffffffffffffffffffffffffffffffff1602179055505050600061103a600761186d565b9050611046848261187b565b6110508184611a55565b8091505098975050505050505050565b6000600560008473ffffffffffffffffffffffffffffffffffffffff1673ffffffffffffffffffffffffffffffffffffffff16815260200190815260200160002060008373ffffffffffffffffffffffffffffffffffffffff1673ffffffffffffffffffffffffffffffffffffffff16815260200190815260200160002060009054906101000a900460ff16905092915050565b60007f01ffc9a7000000000000000000000000000000000000000000000000000000007bffffffffffffffffffffffffffffffffffffffffffffffffffffffff1916827bffffffffffffffffffffffffffffffffffffffffffffffffffffffff1916149050919050565b60008073ffffffffffffffffffffffffffffffffffffffff166002600084815260200190815260200160002060009054906101000a900473ffffffffffffffffffffffffffffffffffffffff1673ffffffffffffffffffffffffffffffffffffffff1614159050919050565b600033905090565b816004600083815260200190815260200160002060006101000a81548173ffffffffffffffffffffffffffffffffffffffff021916908373ffffffffffffffffffffffffffffffffffffffff160217905550808273ffffffffffffffffffffffffffffffffffffffff1661124583610714565b73ffffffffffffffffffffffffffffffffffffffff167f8c5be1e5ebec7d5bd14f71427d1e84f3dd0314c0f7b2291e5b200ac8c7c3b92560405160405180910390a45050565b60006112968261115e565b6112d5576040517f08c379a00000000000000000000000000000000000000000000000000000000081526004016112cc906128df565b60405180910390fd5b60006112e083610714565b90508073ffffffffffffffffffffffffffffffffffffffff168473ffffffffffffffffffffffffffffffffffffffff16148061134f57508373ffffffffffffffffffffffffffffffffffffffff16611337846104f7565b73ffffffffffffffffffffffffffffffffffffffff16145b80611360575061135f8185611060565b5b91505092915050565b8273ffffffffffffffffffffffffffffffffffffffff1661138982610714565b73ffffffffffffffffffffffffffffffffffffffff16146113df576040517f08c379a00000000000000000000000000000000000000000000000000000000081526004016113d69061285f565b60405180910390fd5b600073ffffffffffffffffffffffffffffffffffffffff168273ffffffffffffffffffffffffffffffffffffffff16141561144f576040517f08c379a00000000000000000000000000000000000000000000000000000000081526004016114469061289f565b60405180910390fd5b61145a838383611ac9565b6114656000826111d2565b6001600360008573ffffffffffffffffffffffffffffffffffffffff1673ffffffffffffffffffffffffffffffffffffffff16815260200190815260200160002060008282546114b59190612bab565b925050819055506001600360008473ffffffffffffffffffffffffffffffffffffffff1673ffffffffffffffffffffffffffffffffffffffff168152602001908152602001600020600082825461150c9190612b24565b92505081905550816002600083815260200190815260200160002060006101000a81548173ffffffffffffffffffffffffffffffffffffffff021916908373ffffffffffffffffffffffffffffffffffffffff160217905550808273ffffffffffffffffffffffffffffffffffffffff168473ffffffffffffffffffffffffffffffffffffffff167fddf252ad1be2c89b69c2b068fc378daa952ba7f163c4a11628f55a4df523b3ef60405160405180910390a46115cb838383611ace565b505050565b8173ffffffffffffffffffffffffffffffffffffffff168373ffffffffffffffffffffffffffffffffffffffff16141561163f576040517f08c379a0000000000000000000000000000000000000000000000000000000008152600401611636906128bf565b60405180910390fd5b80600560008573ffffffffffffffffffffffffffffffffffffffff1673ffffffffffffffffffffffffffffffffffffffff16815260200190815260200160002060008473ffffffffffffffffffffffffffffffffffffffff1673ffffffffffffffffffffffffffffffffffffffff16815260200190815260200160002060006101000a81548160ff0219169083151502179055508173ffffffffffffffffffffffffffffffffffffffff168373ffffffffffffffffffffffffffffffffffffffff167f17307eab39ab6107e8899845ad3d59bd9653f200f220920489ca2b5937696c31836040516117309190612769565b60405180910390a3505050565b611748848484611369565b61175484848484611ad3565b611793576040517f08c379a000000000000000000000000000000000000000000000000000000000815260040161178a9061283f565b60405180910390fd5b50505050565b606060405180602001604052806000815250905090565b60606117bb8261115e565b6117fa576040517f08c379a00000000000000000000000000000000000000000000000000000000081526004016117f1906129df565b60405180910390fd5b6000611804611799565b90506000815111611824576040518060200160405280600081525061184f565b8061182e84611c6a565b60405160200161183f9291906126de565b6040516020818303038152906040525b915050919050565b6001816000016000828254019250508190555050565b600081600001549050919050565b600073ffffffffffffffffffffffffffffffffffffffff168273ffffffffffffffffffffffffffffffffffffffff1614156118eb576040517f08c379a00000000000000000000000000000000000000000000000000000000081526004016118e29061297f565b60405180910390fd5b6118f48161115e565b15611934576040517f08c379a000000000000000000000000000000000000000000000000000000000815260040161192b9061287f565b60405180910390fd5b61194060008383611ac9565b6001600360008473ffffffffffffffffffffffffffffffffffffffff1673ffffffffffffffffffffffffffffffffffffffff16815260200190815260200160002060008282546119909190612b24565b92505081905550816002600083815260200190815260200160002060006101000a81548173ffffffffffffffffffffffffffffffffffffffff021916908373ffffffffffffffffffffffffffffffffffffffff160217905550808273ffffffffffffffffffffffffffffffffffffffff16600073ffffffffffffffffffffffffffffffffffffffff167fddf252ad1be2c89b69c2b068fc378daa952ba7f163c4a11628f55a4df523b3ef60405160405180910390a4611a5160008383611ace565b5050565b611a5e8261115e565b611a9d576040517f08c379a0000000000000000000000000000000000000000000000000000000008152600401611a949061295f565b60405180910390fd5b80600660008481526020019081526020016000209080519060200190611ac4929190611dee565b505050565b505050565b505050565b6000611af48473ffffffffffffffffffffffffffffffffffffffff16611dcb565b15611c5d578373ffffffffffffffffffffffffffffffffffffffff1663150b7a02611b1d6111ca565b8786866040518563ffffffff1660e01b8152600401611b3f949392919061271d565b602060405180830381600087803b158015611b5957600080fd5b505af1925050508015611b8a57506040513d601f19601f82011682018060405250810190611b879190612226565b60015b611c0d573d8060008114611bba576040519150601f19603f3d011682016040523d82523d6000602084013e611bbf565b606091505b50600081511415611c05576040517f08c379a0000000000000000000000000000000000000000000000000000000008152600401611bfc9061283f565b60405180910390fd5b805181602001fd5b63150b7a0260e01b7bffffffffffffffffffffffffffffffffffffffffffffffffffffffff1916817bffffffffffffffffffffffffffffffffffffffffffffffffffffffff191614915050611c62565b600190505b949350505050565b60606000821415611cb2576040518060400160405280600181526020017f30000000000000000000000000000000000000000000000000000000000000008152509050611dc6565b600082905060005b60008214611ce4578080611ccd90612cf8565b915050600a82611cdd9190612b7a565b9150611cba565b60008167ffffffffffffffff811115611d0057611cff612e2e565b5b6040519080825280601f01601f191660200182016040528015611d325781602001600182028036833780820191505090505b5090505b60008514611dbf57600182611d4b9190612bab565b9150600a85611d5a9190612d41565b6030611d669190612b24565b60f81b818381518110611d7c57611d7b612dff565b5b60200101907effffffffffffffffffffffffffffffffffffffffffffffffffffffffffffff1916908160001a905350600a85611db89190612b7a565b9450611d36565b8093505050505b919050565b6000808273ffffffffffffffffffffffffffffffffffffffff163b119050919050565b828054611dfa90612c95565b90600052602060002090601f016020900481019282611e1c5760008555611e63565b82601f10611e3557805160ff1916838001178555611e63565b82800160010185558215611e63579182015b82811115611e62578251825591602001919060010190611e47565b5b509050611e709190611e74565b5090565b5b80821115611e8d576000816000905550600101611e75565b5090565b6000611ea4611e9f84612a7f565b612a5a565b905082815260208101848484011115611ec057611ebf612e62565b5b611ecb848285612c53565b509392505050565b6000611ee6611ee184612ab0565b612a5a565b905082815260208101848484011115611f0257611f01612e62565b5b611f0d848285612c53565b509392505050565b600081359050611f2481613300565b92915050565b600081359050611f3981613317565b92915050565b600081359050611f4e8161332e565b92915050565b600081519050611f638161332e565b92915050565b600082601f830112611f7e57611f7d612e5d565b5b8135611f8e848260208601611e91565b91505092915050565b600082601f830112611fac57611fab612e5d565b5b8135611fbc848260208601611ed3565b91505092915050565b600081359050611fd481613345565b92915050565b600060208284031215611ff057611fef612e6c565b5b6000611ffe84828501611f15565b91505092915050565b6000806040838503121561201e5761201d612e6c565b5b600061202c85828601611f15565b925050602061203d85828601611f15565b9150509250929050565b6000806000606084860312156120605761205f612e6c565b5b600061206e86828701611f15565b935050602061207f86828701611f15565b925050604061209086828701611fc5565b9150509250925092565b600080600080608085870312156120b4576120b3612e6c565b5b60006120c287828801611f15565b94505060206120d387828801611f15565b93505060406120e487828801611fc5565b925050606085013567ffffffffffffffff81111561210557612104612e67565b5b61211187828801611f69565b91505092959194509250565b6000806040838503121561213457612133612e6c565b5b600061214285828601611f15565b925050602061215385828601611f2a565b9150509250929050565b6000806040838503121561217457612173612e6c565b5b600061218285828601611f15565b925050602083013567ffffffffffffffff8111156121a3576121a2612e67565b5b6121af85828601611f97565b9150509250929050565b600080604083850312156121d0576121cf612e6c565b5b60006121de85828601611f15565b92505060206121ef85828601611fc5565b9150509250929050565b60006020828403121561220f5761220e612e6c565b5b600061221d84828501611f3f565b91505092915050565b60006020828403121561223c5761223b612e6c565b5b600061224a84828501611f54565b91505092915050565b600080600080600080600080610100898b03121561227457612273612e6c565b5b600089013567ffffffffffffffff81111561229257612291612e67565b5b61229e8b828c01611f97565b985050602089013567ffffffffffffffff8111156122bf576122be612e67565b5b6122cb8b828c01611f97565b975050604089013567ffffffffffffffff8111156122ec576122eb612e67565b5b6122f88b828c01611f97565b965050606089013567ffffffffffffffff81111561231957612318612e67565b5b6123258b828c01611f97565b955050608089013567ffffffffffffffff81111561234657612345612e67565b5b6123528b828c01611f97565b94505060a06123638b828c01611f15565b93505060c06123748b828c01611f15565b92505060e089013567ffffffffffffffff81111561239557612394612e67565b5b6123a18b828c01611f97565b9150509295985092959890939650565b6000602082840312156123c7576123c6612e6c565b5b60006123d584828501611fc5565b91505092915050565b6123e781612bdf565b82525050565b6123f681612bf1565b82525050565b600061240782612ae1565b6124118185612af7565b9350612421818560208601612c62565b61242a81612e71565b840191505092915050565b600061244082612aec565b61244a8185612b08565b935061245a818560208601612c62565b61246381612e71565b840191505092915050565b600061247982612aec565b6124838185612b19565b9350612493818560208601612c62565b80840191505092915050565b60006124ac603283612b08565b91506124b782612e82565b604082019050919050565b60006124cf602583612b08565b91506124da82612ed1565b604082019050919050565b60006124f2601c83612b08565b91506124fd82612f20565b602082019050919050565b6000612515602483612b08565b915061252082612f49565b604082019050919050565b6000612538601983612b08565b915061254382612f98565b602082019050919050565b600061255b602c83612b08565b915061256682612fc1565b604082019050919050565b600061257e603883612b08565b915061258982613010565b604082019050919050565b60006125a1602a83612b08565b91506125ac8261305f565b604082019050919050565b60006125c4602983612b08565b91506125cf826130ae565b604082019050919050565b60006125e7602e83612b08565b91506125f2826130fd565b604082019050919050565b600061260a602083612b08565b91506126158261314c565b602082019050919050565b600061262d603183612b08565b915061263882613175565b604082019050919050565b6000612650602c83612b08565b915061265b826131c4565b604082019050919050565b6000612673602f83612b08565b915061267e82613213565b604082019050919050565b6000612696602183612b08565b91506126a182613262565b604082019050919050565b60006126b9603183612b08565b91506126c4826132b1565b604082019050919050565b6126d881612c49565b82525050565b60006126ea828561246e565b91506126f6828461246e565b91508190509392505050565b600060208201905061271760008301846123de565b92915050565b600060808201905061273260008301876123de565b61273f60208301866123de565b61274c60408301856126cf565b818103606083015261275e81846123fc565b905095945050505050565b600060208201905061277e60008301846123ed565b92915050565b6000602082019050818103600083015261279e8184612435565b905092915050565b600060e08201905081810360008301526127c0818a612435565b905081810360208301526127d48189612435565b905081810360408301526127e88188612435565b905081810360608301526127fc8187612435565b905081810360808301526128108186612435565b905081810360a08301526128248185612435565b905061283360c08301846123de565b98975050505050505050565b600060208201905081810360008301526128588161249f565b9050919050565b60006020820190508181036000830152612878816124c2565b9050919050565b60006020820190508181036000830152612898816124e5565b9050919050565b600060208201905081810360008301526128b881612508565b9050919050565b600060208201905081810360008301526128d88161252b565b9050919050565b600060208201905081810360008301526128f88161254e565b9050919050565b6000602082019050818103600083015261291881612571565b9050919050565b6000602082019050818103600083015261293881612594565b9050919050565b60006020820190508181036000830152612958816125b7565b9050919050565b60006020820190508181036000830152612978816125da565b9050919050565b60006020820190508181036000830152612998816125fd565b9050919050565b600060208201905081810360008301526129b881612620565b9050919050565b600060208201905081810360008301526129d881612643565b9050919050565b600060208201905081810360008301526129f881612666565b9050919050565b60006020820190508181036000830152612a1881612689565b9050919050565b60006020820190508181036000830152612a38816126ac565b9050919050565b6000602082019050612a5460008301846126cf565b92915050565b6000612a64612a75565b9050612a708282612cc7565b919050565b6000604051905090565b600067ffffffffffffffff821115612a9a57612a99612e2e565b5b612aa382612e71565b9050602081019050919050565b600067ffffffffffffffff821115612acb57612aca612e2e565b5b612ad482612e71565b9050602081019050919050565b600081519050919050565b600081519050919050565b600082825260208201905092915050565b600082825260208201905092915050565b600081905092915050565b6000612b2f82612c49565b9150612b3a83612c49565b9250827fffffffffffffffffffffffffffffffffffffffffffffffffffffffffffffffff03821115612b6f57612b6e612d72565b5b828201905092915050565b6000612b8582612c49565b9150612b9083612c49565b925082612ba057612b9f612da1565b5b828204905092915050565b6000612bb682612c49565b9150612bc183612c49565b925082821015612bd457612bd3612d72565b5b828203905092915050565b6000612bea82612c29565b9050919050565b60008115159050919050565b60007fffffffff0000000000000000000000000000000000000000000000000000000082169050919050565b600073ffffffffffffffffffffffffffffffffffffffff82169050919050565b6000819050919050565b82818337600083830152505050565b60005b83811015612c80578082015181840152602081019050612c65565b83811115612c8f576000848401525b50505050565b60006002820490506001821680612cad57607f821691505b60208210811415612cc157612cc0612dd0565b5b50919050565b612cd082612e71565b810181811067ffffffffffffffff82111715612cef57612cee612e2e565b5b80604052505050565b6000612d0382612c49565b91507fffffffffffffffffffffffffffffffffffffffffffffffffffffffffffffffff821415612d3657612d35612d72565b5b600182019050919050565b6000612d4c82612c49565b9150612d5783612c49565b925082612d6757612d66612da1565b5b828206905092915050565b7f4e487b7100000000000000000000000000000000000000000000000000000000600052601160045260246000fd5b7f4e487b7100000000000000000000000000000000000000000000000000000000600052601260045260246000fd5b7f4e487b7100000000000000000000000000000000000000000000000000000000600052602260045260246000fd5b7f4e487b7100000000000000000000000000000000000000000000000000000000600052603260045260246000fd5b7f4e487b7100000000000000000000000000000000000000000000000000000000600052604160045260246000fd5b600080fd5b600080fd5b600080fd5b600080fd5b6000601f19601f8301169050919050565b7f4552433732313a207472616e7366657220746f206e6f6e20455243373231526560008201527f63656976657220696d706c656d656e7465720000000000000000000000000000602082015250565b7f4552433732313a207472616e736665722066726f6d20696e636f72726563742060008201527f6f776e6572000000000000000000000000000000000000000000000000000000602082015250565b7f4552433732313a20746f6b656e20616c7265616479206d696e74656400000000600082015250565b7f4552433732313a207472616e7366657220746f20746865207a65726f2061646460008201527f7265737300000000000000000000000000000000000000000000000000000000602082015250565b7f4552433732313a20617070726f766520746f2063616c6c657200000000000000600082015250565b7f4552433732313a206f70657261746f7220717565727920666f72206e6f6e657860008201527f697374656e7420746f6b656e0000000000000000000000000000000000000000602082015250565b7f4552433732313a20617070726f76652063616c6c6572206973206e6f74206f7760008201527f6e6572206e6f7220617070726f76656420666f7220616c6c0000000000000000602082015250565b7f4552433732313a2062616c616e636520717565727920666f7220746865207a6560008201527f726f206164647265737300000000000000000000000000000000000000000000602082015250565b7f4552433732313a206f776e657220717565727920666f72206e6f6e657869737460008201527f656e7420746f6b656e0000000000000000000000000000000000000000000000602082015250565b7f45524337323155524953746f726167653a2055524920736574206f66206e6f6e60008201527f6578697374656e7420746f6b656e000000000000000000000000000000000000602082015250565b7f4552433732313a206d696e7420746f20746865207a65726f2061646472657373600082015250565b7f45524337323155524953746f726167653a2055524920717565727920666f722060008201527f6e6f6e6578697374656e7420746f6b656e000000000000000000000000000000602082015250565b7f4552433732313a20617070726f76656420717565727920666f72206e6f6e657860008201527f697374656e7420746f6b656e0000000000000000000000000000000000000000602082015250565b7f4552433732314d657461646174613a2055524920717565727920666f72206e6f60008201527f6e6578697374656e7420746f6b656e0000000000000000000000000000000000602082015250565b7f4552433732313a20617070726f76616c20746f2063757272656e74206f776e6560008201527f7200000000000000000000000000000000000000000000000000000000000000602082015250565b7f4552433732313a207472616e736665722063616c6c6572206973206e6f74206f60008201527f776e6572206e6f7220617070726f766564000000000000000000000000000000602082015250565b61330981612bdf565b811461331457600080fd5b50565b61332081612bf1565b811461332b57600080fd5b50565b61333781612bfd565b811461334257600080fd5b50565b61334e81612c49565b811461335957600080fd5b5056fea26469706673582212206fbb5a6ea298eaf67ac7c3800593d038155f013ad270c42f05a8c7e6bf0925b464736f6c63430008070033",
  "linkReferences": {},
  "deployedLinkReferences": {}
}